:020000040800F2
:1000000068060020990100082D0600082506000852
:100010002906000855020008111800080000000019
:100020000000000000000000000000008D0C00082F
:100030005902000800000000190C0008BD0D00085E
:10004000B3010008B3010008B3010008B3010008C0
:10005000B3010008B30100085D020008C5020008F2
:10006000B3010008B3010008B3010008B3010008A0
:10007000B3010008B3010008B3010008B301000890
:10008000B3010008B3010008B3010008B301000880
:10009000B3010008B3010008B3010008B301000870
:1000A000B3010008B3010008B3010008B301000860
:1000B00081120008B3010008B3010008B301000871
:1000C000B3010008B3010008B3010008B301000840
:1000D000B3010008B3010008B3010008B301000830
:1000E00099020008B3010008B301000800F002F80B
:1000F00000F042F814A696E8000CB244B344DA4586
:1001000001D100F039F8BAE80F000FA696E83000E8
:10011000A5EB040504EB0607AAEB0704A7F101070A
:100120004FEA15154FEA3414A4F10104AC4201D38F
:1001300000F022F813F0010F18BFFB1A43F001037F
:1001400000F001F8DBE71847041D0000141D000053
:10015000704700000023002400250026103A28BF25
:1001600078C1FBD8520728BF30C148BF0B60704729
:100170001FB51FBD10B510BD00F031F81146FFF7D7
:10018000F7FF01F047FB00F04FF803B4FFF7F2FF71
:1001900003BC00F057F800000948804709480047B1
:1001A000FEE7FEE7FEE7FEE7FEE7FEE7FEE7FEE727
:1001B000FEE7FEE704480549054A064B7047000084
:1001C000C10D0008ED00000868000020680600204E
:1001D000680200206802002070477047704775462B
:1001E00000F02CF8AE4605006946534620F00700A3
:1001F000854618B020B5FFF7DDFFBDE820404FF081
:1002000000064FF000074FF000084FF0000BAC461F
:10021000ACE8C009ACE8C009ACE8C009ACE8C0096A
:1002200021F007018D46704710B50446AFF30080FA
:100230002046BDE81040FFF7A8BF00000048704707
:100240000000002001491820ABBEFEE72600020096
:1002500070470000FFE7FEE77047000080B501200F
:1002600000F058F8012815D1FFE740F60040C4F22D
:100270000100022100F0A6F940B9FFE740F2620157
:10028000C2F20001088801380880FFE7012000F071
:1002900037F8FFE780BD000080B54FF4804000F0E4
:1002A00039F801280CD1FFE740F26001C2F20001E9
:1002B0000888013008804FF4804000F021F8FFE703
:1002C00080BD000080B5022000F024F8012815D17F
:1002D000FFE740F60040C4F20100012100F072F98E
:1002E00040B9FFE740F26201C2F200010888013024
:1002F0000880FFE7022000F003F8FFE780BD000060
:1003000081B00090009840F21441C4F201010860ED
:1003100001B0704783B0029000208DF80700009074
:1003200040F20040C4F201000068029908400090C9
:1003300040F21440C4F2010000680299084207D05C
:10034000FFE7009820B1FFE701208DF8070003E0E8
:1003500000208DF80700FFE79DF8070003B0704705
:1003600080B582B040F20040C4F20000009001F07D
:1003700023F801460098ADF80610002101F0FEF8C0
:10038000BDF9060002B080BD80B58EB0022001210B
:10039000079100F043FC07990420019000F05AFCFB
:1003A00048208DF83700C020ADF8340003200490B9
:1003B0008DF8360040F60000C4F201000DA900F0EF
:1003C0003DF800200590ADF83000ADF82C004FF658
:1003D000FF71ADF82E10ADF82A008DF8320040F212
:1003E0000040C4F2000006900DF12A0101F018F956
:1003F00008A8039001F08EF80399059A0698ADF8C5
:1004000020200F220292ADF8282001F009F8019B6C
:10041000029A03990698ADF82030ADF8282000F034
:10042000FFFF0499059B06981A4600F06FFF069897
:10043000079900F055FF0EB080BD000088B007900E
:100440000691002005900490039002900190009086
:100450000698C07800F00F0005900698C078C00696
:10046000002806D5FFE7069881780598084305908F
:10047000FFE70698007800284BD0FFE70798006850
:10048000019000200390FFE7039807283DD8FFE77D
:10049000039901208840029006980088029908403C
:1004A00004900498029988422AD1FFE703988000BB
:1004B000029002990F20884000900099019888438B
:1004C00001900598029900FA01F101980843019002
:1004D0000698C078282806D1FFE7039901208840B4
:1004E000079948610BE00698C078482806D1FFE7D5
:1004F00003990120884007990861FFE7FFE7FFE7BC
:10050000FFE7039801300390BEE701980799086060
:10051000FFE706980088B0F5807F50DBFFE707987B
:100520004068019000200390FFE70398072842D815
:10053000FFE7039800F10801012088400290069827
:1005400000880299084004900498029988422DD1AD
:10055000FFE703988000029002990F2088400090E6
:1005600000990198884301900598029900FA01F1D9
:100570000198084301900698C078282808D1FFE721
:10058000039800F108010120884007994861FFE7BE
:100590000698C078482808D1FFE7039800F10801C1
:1005A0000120884007990861FFE7FFE7FFE703980C
:1005B00001300390B9E7019807994860FFE708B058
:1005C0007047000082B00190ADF8021000208DF855
:1005D000010001988068BDF80210084204D0FFE7CE
:1005E00001208DF8010003E000208DF80100FFE7F5
:1005F0009DF8010002B0704782B00190ADF8021082
:100600008DF801209DF8010028B1FFE7BDF8020038
:100610000199086104E0BDF8020001994861FFE713
:1006200002B07047FFE7FEE7FFE7FEE77047000014
:1006300084B003900020029001900F200090039856
:10064000C078B8B3FFE74EF60C50CEF20000006859
:10065000C043C0F3022002900298C0F10400019050
:1006600000980299C840009003984078019988400A
:100670000290039880780099014002980843029004
:100680000298000102900298039909784EF2004204
:10069000CEF2000288540398027802F01F01012074
:1006A00088401C2101EAD2014EF20012CEF2000273
:1006B00088500EE00398027802F01F010120884064
:1006C0001C2101EAD2014EF28012CEF200028850C3
:1006D000FFE704B07047000081B00090009800214F
:1006E000C0F2FA5108434EF60C51CEF200010860F8
:1006F00001B0704780B582B000208DF80600FFE79A
:100700009DF80600072820DCFFE79DF80600002181
:10071000009100F04BF900988DF80700FFE79DF875
:1007200007007F280ADCFFE7002000F061FAFFE7FE
:100730009DF8070001308DF80700F0E7FFE79DF80E
:10074000060001308DF80600DAE702B080BD000037
:1007500080B586B008200121049100F07BFA1420B6
:100760008DF8170003208DF816004FF4807001906B
:10077000ADF8140040F60040C4F20100029005A953
:100780000091FFF75BFE009902984FF4007203920C
:10079000ADF81420FFF752FE01990298049AFFF772
:1007A0002BFF02980399049AFFF726FF06B080BD3D
:1007B00080B586B08DF8170000208DF81600FFE791
:1007C0009DF81600072824DCFFE79DF817009DF828
:1007D00016208021D14000EA010240F60040C4F218
:1007E000010003904FF40071FFF706FF03984FF4E8
:1007F000807104910122FFF7FFFE03980499002203
:10080000FFF7FAFEFFE79DF8160001308DF816009D
:10081000D6E740F60040C4F2010001904FF4807129
:1008200002910122FFF7E8FE019802990022FFF7EA
:10083000E3FE06B080BD000080B586B040F6004003
:10084000C4F2010003904FF4007102910122019261
:10085000FFF7D2FE019A03984FF480710491FFF7DD
:10086000CBFE0299039800220592FFF7C5FE03987C
:100870000499059AFFF7C0FE06B080BD80B584B02C
:1008800040F60040C4F2010001904FF40071029163
:100890000022FFF7B1FE01984FF48071012203920C
:1008A000FFF7AAFE01980299039AFFF7A5FE04B08C
:1008B00080BD000080B582B000200190FFE7019864
:1008C000C0087C2812D8FFE700200090FFE70098BE
:1008D000C0087C2805D8FFE7FFE7009801300090AA
:1008E000F5E7FFE7019801300190E8E7FFF730FFF7
:1008F000AE2000F069F9D52000F066F9802000F004
:1009000063F9A82000F060F93F2000F05DF9D320E2
:1009100000F05AF9002000F057F9402000F054F997
:10092000A12000F051F9C82000F04EF9DA2000F0C3
:100930004BF9122000F048F9812000F045F9CF2052
:1009400000F042F9D92000F03FF9F12000F03CF925
:10095000DB2000F039F9302000F036F9A42000F057
:1009600033F9A62000F030F98D2000F02DF9142085
:1009700000F02AF9AF2000F027F9FFF7BBFE02B024
:1009800080BD000083B00290019101200090FFE73C
:100990000198411E019128B1FFE702990098484350
:1009A0000090F5E7009803B07047000080B582B072
:1009B0008DF807008DF806109DF8070040F0B00094
:1009C00000F002F99DF806000009103000F0FCF874
:1009D0009DF8060000F00F0000F0F6F802B080BDB0
:1009E00080B582B08DF807008DF806108DF80520CF
:1009F0009DF807106FF0010000EB41009DF8062004
:100A00006FF0070101EBC201C0B2C9B2FFF7CEFF20
:100A100000208DF80400FFE79DF80400072819DC8A
:100A2000FFE79DF8051041F65200C0F6000000EB0C
:100A300001109DF8041008444FF60061CFF6FF71D5
:100A4000405C00F0D5F8FFE79DF8040001308DF818
:100A50000400E1E79DF807104FF0FF3000EB410084
:100A60009DF806206FF0070101EBC201C0B2C9B2C8
:100A7000FFF79CFF00208DF80400FFE79DF80400BD
:100A8000072819DCFFE79DF8051041F65200C0F673
:100A9000000000EB01109DF8041008444FF60861B7
:100AA000CFF6FF71405C00F0A3F8FFE79DF804006B
:100AB00001308DF80400E1E702B080BD80B588B058
:100AC0008DF81F008DF81E1006928DF817300698CD
:100AD00000280AD4FFE79DF81F009DF81E102B2266
:100AE000FFF77EFF069804900AE09DF81F009DF82E
:100AF0001E102D22FFF774FF069840420490FFE776
:100B000000208DF81600FFE79DF816009DF81710DD
:100B1000884230DAFFE79DF81F0003909DF81E1011
:100B20009DF81600014401310291049901919DF84C
:100B30001710C04301440A20FFF724FF019A0299CD
:100B400003460398B2FBF3F24CF6CD43CCF6CC430C
:100B5000A2FB03C3DB0803EB8303A2EB430242F0D7
:100B60003002C9B2FFF73CFFFFE79DF816000130E5
:100B70008DF81600C8E708B080BD000080B584B0CD
:100B80008DF80F008DF80E10029200208DF80700EE
:100B9000FFE702989DF80710405C98B1FFE79DF8C9
:100BA0000F009DF80E109DF807301944029AD25C90
:100BB000C9B2FFF715FFFFE79DF8070001308DF878
:100BC0000700E6E704B080BD80B582B08DF807006D
:100BD000FFF732FE7820FFF7EBFD0020FFF7E8FD7E
:100BE0009DF80700FFF7E4FDFFF748FE02B080BD67
:100BF00080B582B08DF80700FFF71EFE7820FFF762
:100C0000D7FD4020FFF7D4FD9DF80700FFF7D0FD8A
:100C1000FFF734FE02B080BD7047000082B0019043
:100C20008DF803109DF8030048B1FFE7019A41F2E7
:100C30001C01C4F2020108681043086008E0019A30
:100C400041F21C01C4F20201086890430860FFE70A
:100C500002B0704782B001908DF803109DF8030038
:100C600048B1FFE7019A41F21801C4F20201086895
:100C70001043086008E0019A41F21801C4F2020131
:100C8000086890430860FFE702B0704770470000B3
:100C900080B500F001F880BD84B000200390029080
:100CA00041F20001C4F20201086840F4803008609B
:100CB000FFE741F20000C4F20200006800F40030D7
:100CC0000290039801300390FFE702990020019001
:100CD00039B9FFE70398B0F5A06018BF0120019073
:100CE000FFE70198C0070028E3D1FFE741F20000C9
:100CF000C4F2020000688003002803D5FFE701204A
:100D0000029002E000200290FFE70298012851D1F2
:100D1000FFE742F20001C4F20201086840F010004F
:100D20000860086820F007000860086840F00200CA
:100D3000086041F20401C4F20201009108680860F1
:100D400008680860086840F480600860086820F45B
:100D50007C100860086840F4E810086041F2000167
:100D6000C4F20201086840F080700860FFE741F2B9
:100D70000000C4F2020000688001002801D4FFE7EF
:100D8000F5E741F20401C4F20201086820F0030013
:100D90000860086840F002000860FFE741F20400C4
:100DA000C4F20200006800F00C00082801D0FFE740
:100DB000F4E700E0FFE704B0704700007047000070
:100DC00080B541F20002C4F20202106840F0010056
:100DD000106041F20401C4F2020108680023CFF65A
:100DE000FF031840086010684FF6FF73CFF6F663F4
:100DF00018401060106820F480201060086820F40B
:100E0000FE00086041F20801C4F202014FF41F0025
:100E10000860FFF73DFF4EF60851CEF200014FF09B
:100E20000060086080BD000084B00390ADF80A1037
:100E3000ADF80820ADF806300020ADF80400ADF89C
:100E400002000399088C20F0010008840398008BAD
:100E5000ADF804000398008CADF80200BDF8040062
:100E600020F0F300ADF80400BDF80800BDF806104E
:100E700040EA0111BDF804000843ADF804000398EE
:100E800042F60041C4F20101884225D0FFE70398F1
:100E900043F20041C4F2010188421DD0FFE70398EC
:100EA000B0F1804F18D0FFE7039840F20041C4F240
:100EB0000001884210D0FFE7039840F60001C4F219
:100EC0000001884208D0FFE7039840F60041C4F2D1
:100ED0000001884210D1FFE7BDF8020020F00200B7
:100EE000ADF80200BDF80A00BDF80210084340F05A
:100EF0000100ADF802000FE0BDF8020020F00A008A
:100F0000ADF80200BDF80A00BDF80210084340F039
:100F10000100ADF80200FFE7BDF804000399088363
:100F2000BDF802000399088404B0704784B00390B0
:100F3000ADF80A10ADF80820ADF806300020ADF885
:100F40000400ADF80200ADF800000399088C20F011
:100F5000100008840398008BADF804000398008CFF
:100F6000ADF80200BDF80A000001ADF80000BDF8C0
:100F7000040040F6FF410840ADF80400BDF806103B
:100F8000BDF8040040EA0130ADF80400BDF80810D7
:100F9000BDF8040040EA0120ADF80400039842F6D1
:100FA0000041C4F20101884225D0FFE7039843F2D3
:100FB0000041C4F2010188421DD0FFE70398B0F15F
:100FC000804F18D0FFE7039840F20041C4F20001BF
:100FD000884210D0FFE7039840F60001C4F20001F8
:100FE000884208D0FFE7039840F60041C4F20001B0
:100FF000884210D1FFE7BDF8020020F02000ADF8D4
:101000000200BDF80000BDF80210084340F01000D7
:10101000ADF802000FE0BDF8020020F0A000ADF82E
:101020000200BDF80A00BDF80210084340F01000AD
:10103000ADF80200FFE7BDF8040003990883BDF88E
:1010400002000399088404B07047000084B0039044
:10105000ADF80A10ADF80820ADF806300020ADF864
:101060000400ADF80200ADF800000399088C20F4EC
:10107000807008840398808BADF804000398008C7E
:10108000ADF80200BDF80A000002ADF80000BDF89E
:10109000040020F0F300ADF80400BDF80800BDF82E
:1010A000061040EA0111BDF804000843ADF8040041
:1010B000039842F60041C4F20101884225D0FFE7BF
:1010C000039843F20041C4F2010188421DD0FFE7BA
:1010D0000398B0F1804F18D0FFE7039840F2004129
:1010E000C4F20001884210D0FFE7039840F60001E7
:1010F000C4F20001884208D0FFE7039840F600419F
:10110000C4F20001884210D1FFE7BDF8020020F4CC
:101110000070ADF80200BDF80000BDF802100843F1
:1011200040F48070ADF802000FE0BDF8020020F43A
:101130002060ADF80200BDF80A00BDF802100843B7
:1011400040F48070ADF80200FFE7BDF80400039999
:101150008883BDF802000399088404B0704700003A
:1011600084B00390ADF80A10ADF80820ADF8063051
:101170000020ADF80400ADF80200ADF800000399BE
:10118000088C20F4805008840398808BADF804000C
:101190000398008CADF80200BDF80A000003ADF81A
:1011A0000000BDF8040040F6FF410840ADF804001F
:1011B000BDF80810BDF8040040EA0120ADF80400B5
:1011C000BDF80610BDF8040040EA0130ADF8040097
:1011D000039842F60041C4F20101884225D0FFE79E
:1011E000039843F20041C4F2010188421DD0FFE799
:1011F0000398B0F1804F18D0FFE7039840F2004108
:10120000C4F20001884210D0FFE7039840F60001C5
:10121000C4F20001884208D0FFE7039840F600417D
:10122000C4F20001884210D1FFE7BDF8020020F4AB
:101230000050ADF80200BDF80000BDF802100843F0
:1012400040F48050ADF8020010E0BDF8020047F60F
:10125000FF510840ADF80200BDF80A00BDF80210C9
:10126000084340F48050ADF80200FFE7BDF80400E9
:1012700003998883BDF802000399088404B070477D
:1012800080B54FF08040012100F09CF801280DD17D
:10129000FFE7FFF765F840F26401C2F20001088041
:1012A0004FF08040012100F00FF8FFE780BD000003
:1012B00082B00190ADF80210BDF80200C043019960
:1012C000088202B07047000082B00190ADF80210B1
:1012D000BDF80200C0430199088202B070470000C7
:1012E00082B001908DF803109DF8030030B1FFE744
:1012F0000199088840F00100088005E001990888FC
:1013000020F001000880FFE702B0704784B003902E
:10131000ADF80A10ADF80820ADF806300020ADF8A1
:101320000400ADF80200ADF8000003980089ADF8A4
:1013300004000398008BADF802000398008CADF810
:101340000000BDF8040020F00700ADF80400BDF86F
:101350000A10BDF804000843ADF80400BDF802000F
:101360004FF6FC410840ADF80200BDF8020040F223
:1013700001110843ADF80200BDF8000020F0220082
:10138000ADF80000BDF80800BDF8061040EA0111F4
:10139000BDF800000843ADF80000BDF80400039953
:1013A0000881BDF8020003990883BDF80000039985
:1013B000088404B07047000081B000900098808CD1
:1013C00001B0704783B00290ADF8061000208DF890
:1013D0000500ADF80200ADF800000298008ABDF8E3
:1013E00006100840ADF8020002988089BDF806108A
:1013F0000840ADF80000BDF8020040B1FFE7BDF8BD
:10140000000020B1FFE701208DF8050003E0002077
:101410008DF80500FFE79DF8050003B07047000058
:1014200080B582B001900091019842F60041C4F26B
:101430000101884225D0FFE7019843F20041C4F240
:10144000010188421DD0FFE70198B0F1804F18D00C
:10145000FFE7019840F20041C4F20001884210D039
:10146000FFE7019840F60001C4F20001884208D06D
:10147000FFE7019840F60041C4F20001884201D123
:10148000FFE700E0FFE70098008868B9FFE70198F0
:10149000009B59889A881B89FFF7C6FC0198009920
:1014A000C98800F075F832E00098008804280DD152
:1014B000FFE70198009B59889A881B89FFF736FD42
:1014C00001980099C98800F075F81FE0009800881D
:1014D00008280DD1FFE70198009B59889A881B893D
:1014E000FFF7B4FD01980099C98800F075F80CE089
:1014F0000198009B59889A881B89FFF731FE019853
:101500000099C98800F07AF8FFE7FFE7FFE702B02B
:1015100080BD000081B000900099002008800099F3
:101520004880009A012191800099C8800099088123
:1015300001B0704782B00190ADF802108DF8012023
:101540009DF8010038B1FFE7BDF8022001998889B4
:101550001043888106E0BDF80220019988899043F4
:101560008881FFE702B0704781B000900099088938
:1015700020F00700088101B07047000082B00190A0
:10158000ADF80210BDF802000199888402B07047DE
:1015900082B00190ADF802100199088B20F00C0088
:1015A0000883BDF802200199088B1043088302B01C
:1015B0007047000082B00190ADF802100199088BCD
:1015C00020F440600883BDF802200199088B40EAAE
:1015D0000220088302B0704782B00190ADF802107B
:1015E0000199888B20F00C008883BDF802200199B6
:1015F000888B1043888302B07047000082B001904E
:10160000ADF802100199888B20F440608883BDF802
:1016100002200199888B40EA0220888302B070473B
:1016200083B0029001910020ADF80200029800887A
:10163000ADF80200029842F60041C4F2010188426E
:1016400025D0FFE7029843F20041C4F2010188422D
:101650001DD0FFE70298B0F1804F18D0FFE7029845
:1016600040F20041C4F20001884210D0FFE7029826
:1016700040F60001C4F20001884208D0FFE702985A
:1016800040F60041C4F2000188420ED1FFE7BDF8E8
:10169000020020F07000ADF8020001984188BDF80A
:1016A00002000843ADF80200FFE7029841F2000192
:1016B000C4F20001884216D0FFE7029841F20041CF
:1016C000C4F2000188420ED0FFE7BDF8020020F40A
:1016D0004070ADF802000198C188BDF802000843CF
:1016E000ADF80200FFE7BDF80200029908800198FA
:1016F0008088029988850198008802990885029857
:1017000042F60041C4F20101884220D0FFE702986E
:1017100043F20041C4F20101884218D0FFE7029869
:1017200044F20001C4F20101884210D0FFE70298A0
:1017300044F20041C4F20101884208D0FFE7029858
:1017400044F60001C4F20101884205D1FFE7019887
:10175000007A02990886FFE702990120888203B087
:101760007047000080B588B0012102910846FFF75C
:1017700055FA02990420FFF76DFA029848218DF876
:101780001F10ADF81C0003208DF81E0040F600006D
:10179000C4F2010007A9FEF751FE4FF0804001900E
:1017A000FFF7E2FE01980021ADF81810ADF8141013
:1017B00042F20F72ADF8162041F61F42ADF812202A
:1017C0008DF81A100DF11201FFF72AFF0198029906
:1017D000FFF76EFD0198029A1146FFF7ABFE4FF43A
:1017E000A060FEF779FF02981C218DF80E108DF88D
:1017F000110002218DF80F108DF810000DF10E0070
:10180000FEF716FF01980299FFF76AFD08B080BD48
:10181000FFE7FEE780B582B000200190FFF74AF8AD
:10182000FFF7A0FFFEF7B0FD41F64262C0F60002EE
:1018300001210846FFF7A2F9FFE740F26400C2F277
:101840000000B0F90020012007210523FFF736F939
:10185000F3E70000000000000000000000000000AE
:101860000000000000F8000000000000003330001D
:10187000000000100C06100C060000000000000024
:10188000000040C07840C0784000043F04043F049A
:101890000400007088FC08300000001820FF211EA2
:1018A0000000F008F000E018000000211C031E21D9
:1018B0001E0000F00888700000001E212324192754
:1018C000211010160E0000000000000000000000B3
:1018D0000000000000E018040200000000071820CB
:1018E000400000020418E00000000040201807003B
:1018F0000000404080F0804040000202010F0102E1
:101900000200000000F0000000000101011F0101C1
:101910000100000000000000000080B07000000026
:1019200000000000000000000000000101010101B2
:101930000101000000000000000000303000000045
:10194000000000000000806018040060180601001C
:10195000000000E010080810E000000F1020201028
:101960000F00001010F8000000000020203F202091
:101970000000007008080888700000302824222128
:1019800030000030088888483000001820202011DE
:101990000E000000C02010F8000000070424243FBF
:1019A000240000F808888808080000192120201168
:1019B0000E0000E0108888180000000F1120201190
:1019C0000E0000380808C83808000000003F00007A
:1019D00000000070880808887000001C2221212265
:1019E0001C0000E010080810E00000003122221165
:1019F0000F00000000C0C0000000000000303000F8
:101A00000000000000800000000000008060000076
:101A100000000000804020100800000102040810AF
:101A200020004040404040404000040404040404BE
:101A3000040000081020408000000020100804026C
:101A40000100007048080808F0000000003036016E
:101A50000000C030C828E810E0000718272423142D
:101A60000B000000C038E0000000203C23020227E9
:101A7000382008F8888888700000203F2020201136
:101A80000E00C03008080808380007182020201071
:101A9000080008F808080810E000203F2020201067
:101AA0000F0008F88888E8081000203F2020232035
:101AB000180008F88888E8081000203F200003007C
:101AC0000000C03008080838000007182020221E37
:101AD000020008F808000008F808203F2101012151
:101AE0003F20000808F8080800000020203F2020C0
:101AF000000000000808F8080800C08080807F000F
:101B0000000008F888C028180800203F2001263867
:101B1000200008F8080000000000203F20202020BE
:101B2000300008F8F800F8F80800203F003F003FB8
:101B3000200008F830C00008F808203F20000718EF
:101B40003F00E01008080810E0000F1020202010CF
:101B50000F0008F808080808F000203F21010101E3
:101B60000000E01008080810E0000F182424385086
:101B70004F0008F8888888887000203F2000030CF8
:101B80003020007088080808380000382021212201
:101B90001C00180808F8080818000000203F200062
:101BA000000008F808000008F808001F2020202086
:101BB0001F000878880000C83808000007380E01A8
:101BC0000000F80800F80008F800033C0700073C94
:101BD0000300081868808068180820302C03032C44
:101BE00030200838C800C83808000000203F200016
:101BF000000010080808C8380800203826212020D6
:101C00001800000000FE020202000000007F4040B9
:101C10004000000C30C00000000000000001063849
:101C2000C00000020202FE000000004040407F00B1
:101C30000000000004020202040000000000000096
:101C40000000000000000000000080808080808094
:101C5000808000020204000000000000000000007C
:101C600000000000808080800000001924222222D1
:101C70003F2008F8008080000000003F1120201164
:101C80000E000000008080800000000E1120202047
:101C90001100000000808088F800000E1120201044
:101CA0003F200000808080800000001F222222222E
:101CB0001300008080F0888888180020203F2020B2
:101CC00000000000808080808000006B94949493DA
:101CD000600008F8008080800000203F2100002084
:101CE0003F2000809898000000000020203F202026
:101CF0000000000000809898000000C08080807F75
:101D0000000008F8000080808000203F24022D3071
:101D10002000000808F8000000000020203F2020DC
:101D200000008080808080808000203F20003F2055
:101D3000003F8080008080800000203F2100002044
:101D40003F200000808080800000001F2020202095
:101D50001F00808000808000000080FFA1202011F3
:101D60000E000000008080808000000E112020A066
:101D7000FF80808080008080800020203F21200024
:101D8000010000008080808080000033242424240F
:101D90001900008080E0808000000000001F2020EB
:101DA00000008080000000808000001F20202010A4
:101DB0003F20808080000080808000010E30080677
:101DC000010080800080008080800F300C030C3088
:101DD0000F0000808000808080000020312E0E31B6
:101DE0002000808080000080808080818E701806B6
:101DF000010000808080808080000021302C222122
:101E0000300000000000807C020200000000003F63
:101E1000404000000000FF00000000000000FF0044
:101E200000000002027C800000000040403F0000F3
:101E3000000000060101020204040000000000008E
:101E4000000053706565643A000000005C1E0008E5
:0C1E50000000002068060000540100089B
:04000005080000ED02
:00000001FF
