:020000040800F2
:1000000068060020990100089D0B0008950B000868
:10001000990B0008DD060008CD1200080000000062
:100020000000000000000000000000003111000886
:100030001508000800000000911000086112000877
:10004000B3010008B3010008B3010008B3010008C0
:10005000B3010008B30100088D080008F508000886
:10006000B3010008B3010008B3010008B3010008A0
:10007000B3010008B3010008B3010008B301000890
:10008000B3010008B3010008B3010008B301000880
:10009000B3010008B3010008B3010008B301000870
:1000A000B3010008B3010008B3010008B301000860
:1000B000B3010008B3010008B3010008B301000850
:1000C000B3010008B3010008B3010008B301000840
:1000D000B3010008B3010008B3010008B301000830
:1000E000C9080008B3010008B301000800F002F8D5
:1000F00000F042F814A696E8000CB244B344DA4586
:1001000001D100F039F8BAE80F000FA696E83000E8
:10011000A5EB040504EB0607AAEB0704A7F101070A
:100120004FEA15154FEA3414A4F10104AC4201D38F
:1001300000F022F813F0010F18BFFB1A43F001037F
:1001400000F001F8DBE71847C0170000D0170000E7
:10015000704700000023002400250026103A28BF25
:1001600078C1FBD8520728BF30C148BF0B60704729
:100170001FB51FBD10B510BD00F031F81146FFF7D7
:10018000F7FF01F0A5F800F04FF803B4FFF7F2FF16
:1001900003BC00F057F800000948804709480047B1
:1001A000FEE7FEE7FEE7FEE7FEE7FEE7FEE7FEE727
:1001B000FEE7FEE704480549054A064B7047000084
:1001C00065120008ED0000086800002068060020A5
:1001D000680200206802002070477047704775462B
:1001E00000F02CF8AE4605006946534620F00700A3
:1001F000854618B020B5FFF7DDFFBDE820404FF081
:1002000000064FF000074FF000084FF0000BAC461F
:10021000ACE8C009ACE8C009ACE8C009ACE8C0096A
:1002200021F007018D46704710B50446AFF30080FA
:100230002046BDE81040FFF7A8BF00000048704707
:100240000000002001491820ABBEFEE72600020096
:100250007047000082B001908DF803109DF80300F4
:1002600030B1FFE70199886840F00100886005E03F
:100270000199886820F001008860FFE702B07047AC
:1002800082B001908DF803109DF8030030B1FFE7B4
:100290000199886840F48070886005E00199886859
:1002A00020F480708860FFE702B0704782B0019050
:1002B00000208DF80300019880684007002804D5CD
:1002C000FFE701208DF8030003E000208DF8030014
:1002D000FFE79DF8030002B07047000082B0019074
:1002E00000208DF80300019880680007002804D5DD
:1002F000FFE701208DF8030003E000208DF80300E4
:10030000FFE79DF8030002B07047000084B003903F
:100310000291002001908DF803000398406801903D
:1003200001984FF6FF61CFF6F071084001900299F5
:100330000868097940EA0121019808430190019871
:100340000399486003988068019001984FF2FD710D
:10035000CFF6F171084001900299C8688A6810438D
:10036000497940EA410101980843019001980399B5
:1003700088600398C06A0190019820F47000019091
:100380000298007C411E9DF8030008438DF803008D
:100390009DF80310019840EA0150019001980399DB
:1003A000C86204B07047000084B003908DF80B1051
:1003B0008DF80A208DF809300020019000909DF8FA
:1003C0000B000A2821DBFFE70398C06801909DF825
:1003D0000B0000EB4000A0F11E01072088400090B8
:1003E00000990198884301909DF809009DF80B1031
:1003F00001EB41011E3988400090009901980843A3
:10040000019001980399C8601DE00398006901906C
:100410009DF80B0000EB40010720884000900099F8
:100420000198884301909DF809009DF80B1001EB9D
:10043000410188400090009901980843019001987B
:1004400003990861FFE79DF80A00062820DCFFE712
:100450000398406B01909DF80A0000EB8000411F5B
:100460001F208840009000990198884301909DF8D2
:100470000B009DF80A1001EB8101053988400090BE
:10048000009901980843019001980399486347E057
:100490009DF80A000C2821DCFFE70398006B01900F
:1004A0009DF80A0000EB8000A0F123011F20884086
:1004B000009000990198884301909DF80B009DF8E9
:1004C0000A1001EB810123398840009000990198BE
:1004D0000843019001980399086320E00398C06ADB
:1004E00001909DF80A0000EB8000A0F141011F205F
:1004F0008840009000990198884301909DF80B0076
:100500009DF80A1001EB8101413988400090009963
:1005100001980843019001980399C862FFE7FFE73B
:1005200004B0704781B000900099886840F00800DE
:10053000886001B07047000082B001908DF8031010
:100540009DF8030030B1FFE70199886840F4A000EE
:10055000886005E00199886820F4A0008860FFE7C2
:1005600002B0704781B000900099886840F00400A4
:10057000886001B07047000080B582B00820C4F2E6
:1005800002000090002100F0C3F8009801210191C1
:1005900000F036F90098019900F0BAF8019942F29A
:1005A0000040C4F20100FFF7C7FFFFE7022000F0A0
:1005B000C7F808B9FFE7F9E7022000F091F802B0A8
:1005C00080BD000080B596B04FF40070012103910A
:1005D00000F092FD0399042000F08EFD0399084677
:1005E00000F06EFD4FF4004000F054FD0398002130
:1005F00001918DF85710ADF8540003208DF8560086
:1006000015A800F0A3FA0199039A42F20040C4F23F
:10061000010004900523FFF7C7FE0199039A04988F
:100620008DF8451013914FF46023129310918DF8BB
:1006300050208DF8441010A9FFF768FE0198039927
:1006400042F24C42C4F2010205924FF480720B92C6
:10065000099040F26002C2F2000206924FF48062FA
:100660000C9280220A92079008910D900F904FF4FF
:1006700080500E900820C4F20200029005A900F0FC
:1006800089F80298039900F043F803990498FFF75A
:10069000F7FD03990498FFF7DDFD0498FFF742FF8B
:1006A000FFE742F20040C4F20100FFF717FE012805
:1006B00001D1FFE7F5E742F20040C4F20100FFF785
:1006C00051FFFFE742F20040C4F20100FFF7EEFDE8
:1006D000012801D1FFE7F5E716B080BDFFE7FEE78F
:1006E00081B000909DF80300C006002807D5FFE701
:1006F000009840F20441C4F20201086005E000984D
:100700000421C4F202010860FFE701B07047000055
:1007100082B001908DF803109DF8030030B1FFE71F
:100720000199086840F00100086006E00199086836
:100730004FF6FE7210400860FFE702B070470000FD
:1007400083B0029000208DF8070000909DF80B0008
:10075000C006002807D5FFE740F20040C4F20200BF
:100760000068009005E00020C4F2020000680090DC
:10077000FFE700980299084204D0FFE701208DF8B6
:10078000070003E000208DF80700FFE79DF8070051
:1007900003B0704780B583B00290019100200090B3
:1007A000029800680090009847F6F0718843009026
:1007B0000199D1F820E08868D1F810C04B698A69A6
:1007C00040EA0E0040EA0C0018431043CA69104387
:1007D0004A6A1043896A01430098084300900098D0
:1007E000029908600198C068029948600198006801
:1007F00002998860019840680299C86003B080BD82
:1008000082B00190ADF80210BDF802000199486075
:1008100002B070477047000080B582B00190FFE7DA
:100820000198411E019128B1FFE74FF47A7000F062
:1008300003F8F5E702B080BD81B00090009800EBAE
:10084000C000C0004EF21401CEF2000108604EF26A
:100850001801CEF20001002008604EF21001CEF225
:10086000000105200860FFE74EF21000CEF2000004
:100870000068C003002801D4FFE7F5E74EF210013D
:10088000CEF200010420086001B0704780B501205D
:1008900000F058F8012815D1FFE740F60040C4F2F7
:1008A0000100022100F038F940B9FFE740F264018D
:1008B000C2F20001088801380880FFE7012000F03B
:1008C00037F8FFE780BD000080B54FF4804000F0AE
:1008D00039F801280CD1FFE740F26201C2F20001B1
:1008E0000888013008804FF4804000F021F8FFE7CD
:1008F00080BD000080B5022000F024F8012815D149
:10090000FFE740F60040C4F20100012100F004F9C5
:1009100040B9FFE740F26401C2F2000108880130EB
:100920000880FFE7022000F003F8FFE780BD000029
:1009300081B00090009840F21441C4F201010860B7
:1009400001B0704783B0029000208DF8070000903E
:1009500040F20040C4F20100006802990840009093
:1009600040F21440C4F2010000680299084207D026
:10097000FFE7009820B1FFE701208DF8070003E0B2
:1009800000208DF80700FFE79DF8070003B07047CF
:1009900088B0079006910020059004900390029083
:1009A000019000900698C07800F00F00059006981E
:1009B000C078C006002806D5FFE70698817805981C
:1009C00008430590FFE70698007800284BD0FFE722
:1009D00007980068019000200390FFE7039807281C
:1009E0003DD8FFE7039901208840029006980088CF
:1009F0000299084004900498029988422AD1FFE79E
:100A000003988000029002990F208840009000997E
:100A10000198884301900598029900FA01F1019824
:100A2000084301900698C078282806D1FFE703996B
:100A300001208840079948610BE00698C078482853
:100A400006D1FFE703990120884007990861FFE775
:100A5000FFE7FFE7FFE7039801300390BEE7019847
:100A600007990860FFE706980088B0F5807F50DBA3
:100A7000FFE707984068019000200390FFE7039884
:100A8000072842D8FFE7039800F1080101208840B9
:100A900002900698008802990840049004980299F0
:100AA00088422DD1FFE703988000029002990F2021
:100AB0008840009000990198884301900598029918
:100AC00000FA01F10198084301900698C07828289F
:100AD00008D1FFE7039800F1080101208840079939
:100AE0004861FFE70698C078482808D1FFE70398D7
:100AF00000F108010120884007990861FFE7FFE73E
:100B0000FFE7039801300390B9E70198079948601F
:100B1000FFE708B07047000082B00190ADF8021006
:100B200000208DF8010001988068BDF8021008428D
:100B300004D0FFE701208DF8010003E000208DF8CC
:100B40000100FFE79DF8010002B0704781B00090FE
:100B500000994FF6FF700880009902208870009974
:100B60000420C87001B0704782B00190ADF8021047
:100B70008DF801209DF8010028B1FFE7BDF80200C3
:100B80000199086104E0BDF8020001994861FFE79E
:100B900002B07047FFE7FEE7FFE7FEE7704700009F
:100BA00080B582B000208DF80600FFE79DF80600B2
:100BB000072820DCFFE79DF806000021009100F0E7
:100BC0004BF900988DF80700FFE79DF807007F2894
:100BD0000ADCFFE7002000F047FAFFE79DF8070076
:100BE00001308DF80700F0E7FFE79DF806000130BF
:100BF0008DF80600DAE702B080BD000080B586B04F
:100C000008200121049100F077FA14208DF81700D4
:100C100003208DF816004FF480700190ADF8140099
:100C200040F60040C4F20100029005A90091FFF7D0
:100C3000AFFE009902984FF400720392ADF81420B1
:100C4000FFF7A6FE01990298049AFFF78DFF02981C
:100C50000399049AFFF788FF06B080BD80B586B07F
:100C60008DF8170000208DF81600FFE79DF816009C
:100C7000072824DCFFE79DF817009DF81620802147
:100C8000D14000EA010240F60040C4F201000390A6
:100C90004FF40071FFF768FF03984FF480710491DF
:100CA0000122FFF761FF039804990022FFF75CFF20
:100CB000FFE79DF8160001308DF81600D6E740F6E4
:100CC0000040C4F2010001904FF4807102910122B2
:100CD000FFF74AFF019802990022FFF745FF06B08F
:100CE00080BD000080B586B040F60040C4F201002F
:100CF00003904FF40071029101220192FFF734FF3B
:100D0000019A03984FF480710491FFF72DFF029927
:100D1000039800220592FFF727FF03980499059A8C
:100D2000FFF722FF06B080BD80B584B040F60040DA
:100D3000C4F2010001904FF4007102910022FFF70C
:100D400013FF01984FF4807101220392FFF70CFF0B
:100D500001980299039AFFF707FF04B080BD0000D5
:100D600080B582B000200190FFE70198C0087C2880
:100D700012D8FFE700200090FFE70098C0087C2809
:100D800005D8FFE7FFE7009801300090F5E7FFE79F
:100D9000019801300190E8E7FFF730FFAE2000F046
:100DA0004FF9D52000F04CF9802000F049F9A82037
:100DB00000F046F93F2000F043F9D32000F040F95D
:100DC000002000F03DF9402000F03AF9A12000F0A9
:100DD00037F9C82000F034F9DA2000F031F9122098
:100DE00000F02EF9812000F02BF9CF2000F028F937
:100DF000D92000F025F9F12000F022F9DB2000F0E5
:100E00001FF9302000F01CF9A42000F019F9A620E9
:100E100000F016F98D2000F013F9142000F010F9FD
:100E2000AF2000F00DF9FFF7BBFE02B080BD00005F
:100E300083B00290019101200090FFE70198411ECC
:100E4000019128B1FFE70299009848430090F5E727
:100E5000009803B07047000080B582B08DF807009D
:100E60008DF806109DF8070040F0B00000F0E8F89B
:100E70009DF806000009103000F0E2F89DF8060029
:100E800000F00F0000F0DCF802B080BD80B582B049
:100E90008DF807008DF806108DF805209DF80710D5
:100EA0006FF0010000EB41009DF806206FF0070194
:100EB00001EBC201C0B2C9B2FFF7CEFF00208DF82E
:100EC0000400FFE79DF80400072819DCFFE79DF800
:100ED000051041F21230C0F6000000EB01109DF841
:100EE000041008444FF60061CFF6FF71405C00F03B
:100EF000BBF8FFE79DF8040001308DF80400E1E73E
:100F00009DF807104FF0FF3000EB41009DF80620E0
:100F10006FF0070101EBC201C0B2C9B2FFF79CFF3D
:100F200000208DF80400FFE79DF80400072819DC75
:100F3000FFE79DF8051041F21230C0F6000000EB0B
:100F400001109DF8041008444FF60861CFF6FF71B8
:100F5000405C00F089F8FFE79DF8040001308DF84F
:100F60000400E1E702B080BD80B586B08DF81700BF
:100F70008DF8161004928DF80F3000208DF80E00B9
:100F8000FFE79DF80E009DF80F1088422FDAFFE76B
:100F90009DF8170002909DF816109DF80E00014470
:100FA0000191049900919DF80F10C04301440A205B
:100FB000FFF73EFF009A019903460298B2FBF3F255
:100FC0004CF6CD43CCF6CC43A2FB03C3DB0803EBCA
:100FD0008303A2EB430242F03002C9B2FFF756FF8F
:100FE000FFE79DF80E0001308DF80E00C9E706B04E
:100FF00080BD000080B584B08DF80F008DF80E1014
:10100000029200208DF80700FFE702989DF8071074
:10101000405C98B1FFE79DF80F009DF80E109DF819
:1010200007301944029AD25CC9B2FFF72FFFFFE7DD
:101030009DF8070001308DF80700E6E704B080BD99
:1010400080B582B08DF80700FFF74CFE7820FFF7DF
:1010500005FE0020FFF702FE9DF80700FFF7FEFDEA
:10106000FFF762FE02B080BD80B582B08DF8070048
:10107000FFF738FE7820FFF7F1FD4020FFF7EEFD87
:101080009DF80700FFF7EAFDFFF74EFE02B080BDB6
:101090007047000082B001900020009041F20401EE
:1010A000C4F2020108680090009820F440400090CB
:1010B000019A0098104300900098086002B07047B1
:1010C00082B001908DF803109DF8030048B1FFE74E
:1010D000019A41F21401C4F2020108681043086049
:1010E00008E0019A41F21401C4F202010868904339
:1010F0000860FFE702B0704782B001908DF80310DE
:101100009DF8030048B1FFE7019A41F21801C4F2CB
:10111000020108681043086008E0019A41F21801D2
:10112000C4F20201086890430860FFE702B070470C
:101130007047000080B500F001F880BD84B0002049
:101140000390029041F20001C4F20201086840F4E9
:1011500080300860FFE741F20000C4F2020000683E
:1011600000F400300290039801300390FFE70299E9
:101170000020019039B9FFE70398B0F5A06018BFCF
:1011800001200190FFE70198C0070028E3D1FFE7A5
:1011900041F20000C4F2020000688003002803D579
:1011A000FFE70120029002E000200290FFE7029892
:1011B000012851D1FFE742F20001C4F202010868A0
:1011C00040F010000860086820F007000860086818
:1011D00040F00200086041F20401C4F202010091F3
:1011E0000868086008680860086840F48060086063
:1011F000086820F47C100860086840F4E810086073
:1012000041F20001C4F20201086840F080700860F9
:10121000FFE741F20000C4F20200006880010028EC
:1012200001D4FFE7F5E741F20401C4F202010868C6
:1012300020F003000860086840F002000860FFE743
:1012400041F20400C4F20200006800F00C0008281B
:1012500001D0FFE7F4E700E0FFE704B070470000CB
:101260007047000080B541F20002C4F2020210682B
:1012700040F00100106041F20401C4F2020108686C
:101280000023CFF6FF031840086010684FF6FF7385
:10129000CFF6F66318401060106820F480201060CC
:1012A000086820F4FE00086041F20801C4F202015F
:1012B0004FF41F000860FFF73DFF4EF60851CEF2D5
:1012C00000014FF00060086080BD0000FFE7FEE70E
:1012D00080B582B000200190FFF742FDFFF772F960
:1012E00041F60212C0F6000201210846FFF782FE15
:1012F000FFE7FFF741F940F26000C2F20000028808
:10130000012005210423FFF72FFE6420FFF784FA54
:10131000EFE70000000000000000000000000000F7
:101320000000000000F80000000000000033300062
:10133000000000100C06100C060000000000000069
:10134000000040C07840C0784000043F04043F04DF
:101350000400007088FC08300000001820FF211EE7
:101360000000F008F000E018000000211C031E211E
:101370001E0000F00888700000001E212324192799
:10138000211010160E0000000000000000000000F8
:101390000000000000E01804020000000007182010
:1013A000400000020418E000000000402018070080
:1013B0000000404080F0804040000202010F010226
:1013C0000200000000F0000000000101011F010107
:1013D0000100000000000000000080B0700000006C
:1013E00000000000000000000000000101010101F8
:1013F000010100000000000000000030300000008B
:101400000000000000008060180400601806010061
:10141000000000E010080810E000000F102020106D
:101420000F00001010F8000000000020203F2020D6
:10143000000000700808088870000030282422216D
:101440003000003008888848300000182020201123
:101450000E000000C02010F8000000070424243F04
:10146000240000F8088888080800001921202011AD
:101470000E0000E0108888180000000F11202011D5
:101480000E0000380808C83808000000003F0000BF
:1014900000000070880808887000001C22212122AA
:1014A0001C0000E010080810E000000031222211AA
:1014B0000F00000000C0C00000000000003030003D
:1014C00000000000008000000000000080600000BC
:1014D00000000000804020100800000102040810F5
:1014E0002000404040404040400004040404040404
:1014F00004000008102040800000002010080402B2
:101500000100007048080808F000000000303601B3
:101510000000C030C828E810E00007182724231472
:101520000B000000C038E0000000203C230202272E
:10153000382008F8888888700000203F202020117B
:101540000E00C030080808083800071820202010B6
:10155000080008F808080810E000203F20202010AC
:101560000F0008F88888E8081000203F202023207A
:10157000180008F88888E8081000203F20000300C1
:101580000000C03008080838000007182020221E7C
:10159000020008F808000008F808203F2101012196
:1015A0003F20000808F8080800000020203F202005
:1015B000000000000808F8080800C08080807F0054
:1015C000000008F888C028180800203F20012638AD
:1015D000200008F8080000000000203F2020202004
:1015E000300008F8F800F8F80800203F003F003FFE
:1015F000200008F830C00008F808203F2000071835
:101600003F00E01008080810E0000F102020201014
:101610000F0008F808080808F000203F2101010128
:101620000000E01008080810E0000F1824243850CB
:101630004F0008F8888888887000203F2000030C3D
:101640003020007088080808380000382021212246
:101650001C00180808F8080818000000203F2000A7
:10166000000008F808000008F808001F20202020CB
:101670001F000878880000C83808000007380E01ED
:101680000000F80800F80008F800033C0700073CD9
:101690000300081868808068180820302C03032C89
:1016A00030200838C800C83808000000203F20005B
:1016B000000010080808C83808002038262120201B
:1016C0001800000000FE020202000000007F4040FF
:1016D0004000000C30C0000000000000000106388F
:1016E000C00000020202FE000000004040407F00F7
:1016F00000000000040202020400000000000000DC
:1017000000000000000000000000808080808080D9
:1017100080800002020400000000000000000000C1
:101720000000000080808080000000192422222216
:101730003F2008F8008080000000003F11202011A9
:101740000E000000008080800000000E112020208C
:101750001100000000808088F800000E1120201089
:101760003F200000808080800000001F2222222273
:101770001300008080F0888888180020203F2020F7
:1017800000000000808080808000006B949494931F
:10179000600008F8008080800000203F21000020C9
:1017A0003F2000809898000000000020203F20206B
:1017B0000000000000809898000000C08080807FBA
:1017C000000008F8000080808000203F24022D30B7
:1017D0002000000808F8000000000020203F202022
:1017E00000008080808080808000203F20003F209B
:1017F000003F8080008080800000203F210000208A
:101800003F200000808080800000001F20202020DA
:101810001F00808000808000000080FFA120201138
:101820000E000000008080808000000E112020A0AB
:10183000FF80808080008080800020203F21200069
:101840000100000080808080800000332424242454
:101850001900008080E0808000000000001F202030
:1018600000008080000000808000001F20202010E9
:101870003F20808080000080808000010E300806BC
:10188000010080800080008080800F300C030C30CD
:101890000F0000808000808080000020312E0E31FB
:1018A0002000808080000080808080818E701806FB
:1018B000010000808080808080000021302C222167
:1018C000300000000000807C020200000000003FA9
:1018D000404000000000FF00000000000000FF008A
:1018E00000000002027C800000000040403F000039
:1018F00000000006010102020404000000000000D4
:1019000000004144303A000018190008000000208F
:08191000680600005401000804
:04000005080000ED02
:00000001FF
