:020000040800F2
:100000000804002001010008510400084904000808
:100010004D0400085501000881120008000000008E
:10002000000000000000000000000000D50B0008E8
:100030005901000800000000250A0008490E0008C8
:100040001B0100081B0100081B0100081B01000820
:100050001B0100081B0100085D010008C501000824
:100060001B0100081B0100081B0100081B01000800
:100070001B0100081B0100081B0100081B010008F0
:100080001B0100081B0100081B0100081B010008E0
:100090001B0100081B0100081B0100081B010008D0
:1000A0001B0100081B0100081B0100081B010008C0
:1000B0001B0100081B0100081B0100081B010008B0
:1000C0001B0100081B0100081B0100081B010008A0
:1000D0001B010008B50E00081B0100081B010008E9
:1000E000990100081B0100081B010008DFF80CD073
:1000F00000F018F8004800478512000808040020A6
:100100000648804706480047FEE7FEE7FEE7FEE7B1
:10011000FEE7FEE7FEE7FEE7FEE7FEE74D0E00081E
:10012000ED0000081CB509480090094801900546FB
:10013000009C06E0E06840F0010394E8070098475F
:100140001034AC42F6D3FFF7D5FF000004190008C5
:1001500014190008FFE7FEE77047000080B5012092
:1001600000F058F8012815D1FFE740F60040C4F22E
:100170000100022100F038F940B9FFE740F2020126
:10018000C2F20001088801380880FFE7012000F072
:1001900037F8FFE780BD000080B54FF4804000F0E5
:1001A00039F801280CD1FFE740F20001C2F200014A
:1001B0000888013008804FF4804000F021F8FFE704
:1001C00080BD000080B5022000F024F8012815D180
:1001D000FFE740F60040C4F20100012100F004F9FD
:1001E00040B9FFE740F20201C2F200010888013085
:1001F0000880FFE7022000F003F8FFE780BD000061
:1002000081B00090009840F21441C4F201010860EE
:1002100001B0704783B0029000208DF80700009075
:1002200040F20040C4F201000068029908400090CA
:1002300040F21440C4F2010000680299084207D05D
:10024000FFE7009820B1FFE701208DF8070003E0E9
:1002500000208DF80700FFE79DF8070003B0704706
:1002600088B00790069100200590049003900290BA
:10027000019000900698C07800F00F000590069855
:10028000C078C006002806D5FFE706988178059853
:1002900008430590FFE70698007800284BD0FFE759
:1002A00007980068019000200390FFE70398072853
:1002B0003DD8FFE703990120884002900698008806
:1002C0000299084004900498029988422AD1FFE7D5
:1002D00003988000029002990F20884000900099B6
:1002E0000198884301900598029900FA01F101985C
:1002F000084301900698C078282806D1FFE70399A3
:1003000001208840079948610BE00698C07848288A
:1003100006D1FFE703990120884007990861FFE7AC
:10032000FFE7FFE7FFE7039801300390BEE701987E
:1003300007990860FFE706980088B0F5807F50DBDA
:10034000FFE707984068019000200390FFE70398BB
:10035000072842D8FFE7039800F1080101208840F0
:100360000290069800880299084004900498029927
:1003700088422DD1FFE703988000029002990F2058
:10038000884000900099019888430190059802994F
:1003900000FA01F10198084301900698C0782828D6
:1003A00008D1FFE7039800F1080101208840079970
:1003B0004861FFE70698C078482808D1FFE703980E
:1003C00000F108010120884007990861FFE7FFE775
:1003D000FFE7039801300390B9E701980799486057
:1003E000FFE708B07047000082B00190ADF802103E
:1003F00000208DF8010001988068BDF802100842C5
:1004000004D0FFE701208DF8010003E000208DF803
:100410000100FFE79DF8010002B0704782B0019033
:10042000ADF802108DF801209DF8010028B1FFE71A
:10043000BDF802000199086104E0BDF802000199CD
:100440004861FFE702B07047FFE7FEE7FFE7FEE71E
:100450007047000084B003900020029001900F20AC
:1004600000900398C078B8B3FFE74EF60C50CEF278
:1004700000000068C043C0F3022002900298C0F15F
:100480000400019000980299C840009003984078B9
:100490000199884002900398807800990140029861
:1004A000084302900298000102900298039909788B
:1004B0004EF20042CEF2000288540398027802F015
:1004C0001F01012088401C2101EAD2014EF20012D6
:1004D000CEF2000288500EE00398027802F01F016D
:1004E000012088401C2101EAD2014EF28012CEF296
:1004F00000028850FFE704B07047000081B0009010
:1005000000980021C0F2FA5108434EF60C51CEF289
:100510000001086001B0704780B582B000208DF8FE
:100520000600FFE79DF80600072820DCFFE79DF89E
:1005300006000021009100F04BF900988DF80700AB
:10054000FFE79DF807007F280ADCFFE7002000F0A6
:1005500055FAFFE79DF8070001308DF80700F0E736
:10056000FFE79DF8060001308DF80600DAE702B0DB
:1005700080BD000080B586B008200121049100F004
:1005800053FA14208DF8170003208DF816004FF44D
:1005900080700190ADF8140040F60040C4F20100F4
:1005A000029005A90091FFF75BFE009902984FF4B5
:1005B00000720392ADF81420FFF752FE01990298E1
:1005C000049AFFF72BFF02980399049AFFF726FF7E
:1005D00006B080BD80B586B08DF8170000208DF87C
:1005E0001600FFE79DF81600072824DCFFE79DF8BA
:1005F00017009DF816208021D14000EA010240F644
:100600000040C4F2010003904FF40071FFF706FFB1
:1006100003984FF4807104910122FFF7FFFE0398C5
:1006200004990022FFF7FAFEFFE79DF8160001305B
:100630008DF81600D6E740F60040C4F201000190A4
:100640004FF4807102910122FFF7E8FE01980299B0
:100650000022FFF7E3FE06B080BD000080B586B043
:1006600040F60040C4F2010003904FF40071029183
:1006700001220192FFF7D2FE019A03984FF4807194
:100680000491FFF7CBFE0299039800220592FFF731
:10069000C5FE03980499059AFFF7C0FE06B080BD19
:1006A00080B584B040F60040C4F2010001904FF4E0
:1006B000007102910022FFF7B1FE01984FF48071A2
:1006C00001220392FFF7AAFE01980299039AFFF70D
:1006D000A5FE04B080BD000080B582B0002001906E
:1006E000FFE70198C0087C2812D8FFE7002000909F
:1006F000FFE70098C0087C2805D8FFE7FFE70098CF
:1007000001300090F5E7FFE7019801300190E8E73C
:10071000FFF730FFAE2000F05DF9D52000F05AF968
:10072000802000F057F9A82000F054F93F2000F095
:1007300051F9D32000F04EF9002000F04BF9402091
:1007400000F048F9A12000F045F9C82000F042F976
:10075000DA2000F03FF9122000F03CF9812000F08F
:1007600039F9CF2000F036F9D92000F033F9F12023
:1007700000F030F9DB2000F02DF9302000F02AF9EC
:10078000A42000F027F9A62000F024F98D2000F025
:1007900021F9142000F01EF9AF2000F01BF9FFF73B
:1007A000BBFE02B080BD000083B002900191012029
:1007B0000090FFE70198411E019128B1FFE70299DF
:1007C000009848430090F5E7009803B07047000098
:1007D00080B582B08DF807008DF806109DF80700EF
:1007E00040F0B00000F0F6F89DF806000009103067
:1007F00000F0F0F89DF8060000F00F0000F0EAF8B5
:1008000002B080BD80B582B08DF807008DF806106B
:100810008DF805209DF807106FF0010000EB4100F6
:100820009DF806206FF0070101EBC201C0B2C9B20A
:10083000FFF7CEFF00208DF80400FFE79DF80400CD
:10084000072819DCFFE79DF8051041F20C30C0F6CF
:10085000000000EB01109DF8041008444FF6006101
:10086000CFF6FF71405C00F0C9F8FFE79DF8040087
:1008700001308DF80400E1E79DF807104FF0FF30DC
:1008800000EB41009DF806206FF0070101EBC2016B
:10089000C0B2C9B2FFF79CFF00208DF80400FFE74B
:1008A0009DF80400072819DCFFE79DF8051041F2C8
:1008B0000C30C0F6000000EB01109DF80410084455
:1008C0004FF60861CFF6FF71405C00F097F8FFE744
:1008D0009DF8040001308DF80400E1E702B080BD0E
:1008E00080B584B08DF80F008DF80E1002928DF84F
:1008F000073000208DF80600FFE79DF806009DF800
:10090000071088423DDAFFE7029800909DF8071033
:100910009DF80600C04301441020FFF745FF014643
:100920000098B0FBF1F000F00F008DF805009DF885
:10093000050009280FDCFFE79DF80F009DF80E1059
:100940009DF8062011449DF805203032C9B2D2B27C
:10095000FFF758FF0EE09DF80F009DF80E109DF870
:10096000062011449DF805203732C9B2D2B2FFF7F4
:1009700049FFFFE7FFE79DF8060001308DF806000C
:10098000BBE704B080BD000080B584B08DF80F00D7
:100990008DF80E10029200208DF80700FFE70298F4
:1009A0009DF80710405C98B1FFE79DF80F009DF897
:1009B0000E109DF807301944029AD25CC9B2FFF7B5
:1009C00021FFFFE79DF8070001308DF80700E6E7FB
:1009D00004B080BD80B582B08DF80700FFF73EFE01
:1009E0007820FFF7F7FD0020FFF7F4FD9DF80700E2
:1009F000FFF7F0FDFFF754FE02B080BD80B582B076
:100A00008DF80700FFF72AFE7820FFF7E3FD40206E
:100A1000FFF7E0FD9DF80700FFF7DCFDFFF740FE64
:100A200002B080BD7047000082B001908DF80310C5
:100A30009DF8030048B1FFE7019A41F21801C4F2A2
:100A4000020108681043086008E0019A41F21801A9
:100A5000C4F20201086890430860FFE702B07047E3
:100A600086B005900020049003900290019041F21E
:100A70000400C4F20200006800F00C000490049826
:100A8000009040B1FFE7009804280BD0FFE70098E2
:100A900008280ED047E0059941F20020C0F27A0004
:100AA000086047E0059941F20020C0F27A00086032
:100AB00040E041F20400C4F20200016801F4701148
:100AC0000391006800F4803002900399022000EB4B
:100AD00091400390029848B9FFE7039840F600114F
:100AE000C0F23D014843059908601BE041F2040053
:100AF000C4F2020000688003002809D5FFE70398CC
:100B000040F60011C0F23D0148430599086008E035
:100B1000039841F20021C0F27A0148430599086028
:100B2000FFE7FFE706E0059941F20020C0F27A00F6
:100B30000860FFE741F20400C4F20200016801F01E
:100B4000F0010491049909090491049A41F2FC21ED
:100B5000C0F600018A5C0192059B1A68DDF804C0AA
:100B600022FA0CF25A60026802F4E0620492049ADB
:100B7000120A0492049A8A5C0192059B5A68DDF875
:100B800004C022FA0CF29A60026802F460520492E5
:100B9000049AD20A0492049A895C0191059A5168D8
:100BA000019BD940D160006800F440400490049853
:100BB000800B0490049941F2F820C0F60000405CDC
:100BC00001900599C868019AB0FBF2F0086106B07F
:100BD000704700007047000040F20500C2F20000BC
:100BE0000078704781B040F20600C2F20000007841
:100BF00001280AD1FFE740F20601C2F200010020FD
:100C0000087001208DF8030003E000208DF8030038
:100C1000FFE79DF8030001B07047000080B58CB07D
:100C20004FF4804001210591FFF7FEFE0599042055
:100C3000FFF7FAFE18208DF82F00032000908DF8A2
:100C40002E004FF400700390ADF82C0040F6000029
:100C5000C4F2010001900BA90291FFF701FB009A79
:100C60000198029948238DF82F308DF82E204FF4EB
:100C70008062ADF82C20FFF7F3FA039805994FF442
:100C800016520792ADF828000C20ADF8260000207F
:100C9000ADF82400ADF82210ADF8200043F60000B6
:100CA000C4F20100049007A900F028FA0498059AFC
:100CB00040F2255100F0D8F94FF4A060FFF71EFC78
:100CC000059825218DF818108DF81B008DF8190056
:100CD0008DF81A0006A8FFF7BDFB0498059900F0EF
:100CE00033F90CB080BD000080B582B08DF80700EC
:100CF0009DF8071043F60000C4F2010000F0B4FABA
:100D0000FFE743F60000C4F20100802100F032F951
:100D100008B9FFE7F5E702B080BD000080B500F03C
:100D200001F880BD84B000200390029041F20001E0
:100D3000C4F20201086840F480300860FFE741F225
:100D40000000C4F20200006800F400300290039832
:100D500001300390FFE702990020019039B9FFE7C5
:100D60000398B0F5A06018BF01200190FFE701983B
:100D7000C0070028E3D1FFE741F20000C4F20200FF
:100D800000688003002803D5FFE70120029002E0FD
:100D900000200290FFE70298012851D1FFE742F2BC
:100DA0000001C4F20201086840F010000860086801
:100DB00020F007000860086840F00200086041F277
:100DC0000401C4F202010091086808600868086024
:100DD000086840F480600860086820F47C100860AF
:100DE000086840F4E810086041F20001C4F2020112
:100DF000086840F080700860FFE741F20000C4F22C
:100E0000020000688001002801D4FFE7F5E741F205
:100E10000401C4F20201086820F0030008600868B9
:100E200040F002000860FFE741F20400C4F2020053
:100E3000006800F00C00082801D0FFE7F4E700E0AC
:100E4000FFE704B0704700007047000080B541F232
:100E50000002C4F20202106840F00100106041F28A
:100E60000401C4F2020108680023CFF6FF03184012
:100E7000086010684FF6FF73CFF6F66318401060F5
:100E8000106820F480201060086820F4FE000860DC
:100E900041F20801C4F202014FF41F000860FFF79D
:100EA0003DFF4EF60851CEF200014FF000600860A1
:100EB00080BD000080B582B043F60000C4F201009E
:100EC00040F2255100F078F8C8B1FFE743F6000082
:100ED000C4F20100019000F0BFF90146019840F210
:100EE0000502C2F20002117040F20602C2F20002D4
:100EF0000121117040F2255100F004F8FFE702B023
:100F000080BD000083B00290ADF806100020ADF85F
:100F10000400ADF80200BDF8060040F66A118842F0
:100F200001D1FFE7FFE79DF80700ADF80400BDF829
:100F3000041001208840ADF80200BDF80200C04353
:100F40000299088003B0704782B001908DF80310B9
:100F50009DF8030030B1FFE70199888940F4005003
:100F6000888105E00199888920F400508881FFE795
:100F700002B0704782B00190ADF8021000208DF8E9
:100F80000100BDF80200B0F5007F01D1FFE7FFE7E7
:100F900001980088BDF802100840000420B1FFE766
:100FA00001208DF8010003E000208DF80100FFE72B
:100FB0009DF8010002B0704786B00590ADF81210A0
:100FC00000200390029001908DF80300BDF81200FC
:100FD00040F66A11884201D1FFE7FFE79DF8120051
:100FE00040090190BDF8120000F01F000290029924
:100FF0000120884002900198012806D1FFE705985A
:10100000818902980840029010E00198022806D1D8
:10101000FFE70598018A02980840029005E00598CC
:10102000818A029808400290FFE7FFE79DF81300CD
:101030000390039901208840039005980188039844
:1010400008400390029838B1FFE7039820B1FFE70A
:1010500001208DF8030003E000208DF80300FFE776
:101060009DF8030006B0704786B00590ADF81210E9
:101070008DF8112000200390029001900090BDF89F
:10108000120040F66A11884201D1FFE7FFE7059898
:1010900000909DF8120040090390BDF8120000F086
:1010A0001F000290029901208840019003980128B6
:1010B00004D1FFE700980C3000900CE00398022860
:1010C00004D1FFE700981030009003E0009814303E
:1010D0000090FFE7FFE79DF8110030B1FFE7019AAC
:1010E000009908681043086005E0019A00990868B3
:1010F00090430860FFE706B07047000080B58CB0F1
:101100000B900A9100200990089007900690059096
:101110000A98808908B1FFE7FFE70B9805900B98C4
:10112000008A099009984CF6FF71084009900A98C6
:10113000C18809980843099009980B9908820B986F
:101140008089099009984EF6F311084009900A9990
:1011500088880A89104349890143099808430990FE
:1011600009980B9988810B98808A099009984FF605
:10117000FF41084009900A9881890998084309901D
:1011800009980B9988826846FFF76AFC059843F630
:101190000001C4F20101884203D1FFE703980890DF
:1011A00002E002980890FFE70B988089000400286D
:1011B0000AD5FFE70898192148430A9909684900A8
:1011C000B0FBF1F0079009E00898192148430A990B
:1011D00009688900B0FBF1F00790FFE7079848F233
:1011E0001F51C5F2EB11A0FB01016FF00F0000EAE7
:1011F00051000990079A09980009642100FB112009
:1012000006900B9880890004002810D5FFE7069906
:10121000322000EBC10048F21F51C5F2EB11A0FBD8
:101220000110C0F342110998084309900FE0069994
:10123000322000EB011048F21F51C5F2EB11A0FB68
:101240000110C0F34311099808430990FFE709987A
:101250000B9908810CB080BD81B000900098808807
:101260006FF35F2001B0704782B00190ADF80210BB
:10127000BDF802006FF35F200199888002B07047CB
:10128000FFE7FEE780B582B000200190FFF724FA67
:10129000FFF7C4FC41F6FC02C0F60002012108463B
:1012A000FFF772FBFFE7FFF79DFC012814D1FFE772
:1012B000FFF792FC014640F20400C2F200000090E9
:1012C00001700078FFF710FD0098027801200821D6
:1012D0000223FFF705FBFFE7E5E702E008C8121F5E
:1012E00008C1002AFAD170477047002001E001C10F
:1012F000121F002AFBD170470204060800000000FC
:1013000001020304010203040607080900000000AB
:10131000000000000000000000000000000000F8D5
:1013200000000000000000333000000000100C0638
:10133000100C0600000000000000000040C07840D3
:10134000C0784000043F04043F040400007088FC9F
:1013500008300000001820FF211E0000F008F000F7
:10136000E018000000211C031E211E0000F0088868
:10137000700000001E2123241927211010160E00D2
:10138000000000000000000000000000000000E07D
:101390001804020000000007182040000002041892
:1013A000E00000000040201807000000404080F0EE
:1013B000804040000202010F01020200000000F024
:1013C000000000000101011F0101010000000000F8
:1013D0000000000080B0700000000000000000006D
:1013E00000000000000101010101010100000000F6
:1013F000000000000030300000000000000000008D
:1014000080601804006018060100000000E0100869
:101410000810E000000F102020100F00001010F83E
:10142000000000000020203F20200000007008087D
:1014300008887000003028242221300000300888FD
:10144000884830000018202020110E000000C02025
:1014500010F8000000070424243F240000F8088846
:10146000880808000019212020110E0000E01088D3
:1014700088180000000F112020110E000038080805
:10148000C83808000000003F000000000070880815
:1014900008887000001C222121221C0000E0100896
:1014A0000810E0000000312222110F00000000C0EF
:1014B000C00000000000003030000000000000808C
:1014C000000000000000806000000000000080407C
:1014D0002010080000010204081020004040404095
:1014E00040404000040404040404040000081020E8
:1014F000408000000020100804020100007048082D
:101500000808F0000000003036010000C030C82894
:10151000E810E0000718272423140B000000C0384F
:10152000E0000000203C23020227382008F88888C9
:1015300088700000203F202020110E00C0300808D5
:1015400008083800071820202010080008F80808AC
:101550000810E000203F202020100F0008F88888A5
:10156000E8081000203F20202320180008F8888871
:10157000E8081000203F200003000000C0300808E9
:101580000838000007182020221E020008F8080072
:101590000008F808203F210101213F20000808F839
:1015A000080800000020203F20200000000008085C
:1015B000F8080800C08080807F00000008F888C01C
:1015C00028180800203F20012638200008F80800CD
:1015D00000000000203F20202020300008F8F80004
:1015E000F8F80800203F003F003F200008F830C016
:1015F0000008F808203F200007183F00E010080806
:101600000810E0000F10202020100F0008F8080834
:101610000808F000203F210101010000E010080847
:101620000810E0000F18242438504F0008F888886C
:1016300088887000203F2000030C3020007088084C
:10164000080838000038202121221C00180808F85A
:10165000080818000000203F2000000008F80800DB
:101660000008F808001F202020201F0008788800AC
:1016700000C83808000007380E010000F80800F81C
:101680000008F800033C0700073C030008186880C6
:101690008068180820302C03032C30200838C8003C
:1016A000C83808000000203F20000000100808088B
:1016B000C83808002038262120201800000000FE2D
:1016C000020202000000007F40404000000C30C0D9
:1016D00000000000000000010638C0000002020205
:1016E000FE000000004040407F00000000000402B7
:1016F00002020400000000000000000000000000E2
:1017000000000000808080808080808000020204D1
:1017100000000000000000000000000000008080C9
:10172000808000000019242222223F2008F8008037
:1017300080000000003F112020110E0000000080FA
:1017400080800000000E1120202011000000008089
:101750008088F800000E112020103F2000008080BB
:1017600080800000001F222222221300008080F0CF
:10177000888888180020203F2020000000008080FA
:1017800080808000006B94949493600008F800803F
:1017900080800000203F210000203F20008098989A
:1017A000000000000020203F2020000000000080FA
:1017B0009898000000C08080807F000008F800003A
:1017C00080808000203F24022D302000000808F88F
:1017D000000000000020203F20200000808080804A
:1017E00080808000203F20003F20003F80800080DC
:1017F00080800000203F210000203F2000008080EA
:1018000080800000001F202020201F00808000809A
:101810008000000080FFA12020110E000000008049
:1018200080808000000E112020A0FF80808080003A
:101830008080800020203F21200001000000808067
:10184000808080000033242424241900008080E05C
:10185000808000000000001F202000008080000029
:1018600000808000001F202020103F20808080000A
:101870000080808000010E3008060100808000801A
:10188000008080800F300C030C300F00008080003F
:10189000808080000020312E0E312000808080006A
:1018A0000080808080818E7018060100008080801A
:1018B000808080000021302C2221300000000000B8
:1018C000807C020200000000003F40400000000059
:1018D000FF00000000000000FF0000000002027C8A
:1018E000800000000040403F0000000000060101B1
:1018F000020204040000000000000000527844616D
:1019000074613A0014190008000000200804000067
:04191000EA120008CF
:04000005080000ED02
:00000001FF
